:020000040800F2
:10000000D80600208901000821140008FD0F00080F
:100010001F140008A102000861150008000000007C
:10002000000000000000000000000000FB140008B9
:10003000A30200080000000023140008FD140008BB
:10004000A3010008A3010008A3010008A301000800
:10005000A3010008A3010008A3010008A3010008F0
:10006000A3010008A3010008A3010008A3010008E0
:10007000A3010008A3010008A3010008A3010008D0
:10008000A3010008A3010008A3010008A3010008C0
:10009000A3010008A3010008A3010008A3010008B0
:1000A000A3010008A3010008A3010008A3010008A0
:1000B000A3010008A3010008A3010008A301000890
:1000C000A3010008A3010008A3010008A301000880
:1000D000A3010008A3010008A3010008A301000870
:1000E000A3010008A3010008A301000800F002F822
:1000F00000F03AF80AA090E8000C82448344AAF188
:100100000107DA4501D100F02FF8AFF2090EBAE885
:100110000F0013F0010F18BFFB1A43F0010318473B
:100120005815000078150000103A24BF78C878C12F
:10013000FAD8520724BF30C830C144BF04680C60ED
:10014000704700000023002400250026103A28BF35
:1001500078C1FBD8520728BF30C148BF0B60704739
:100160001FB51FBD10B510BD00F058F81146FFF7C0
:10017000F7FF01F007FA00F076F803B4FFF7F2FF9B
:1001800003BC00F07DF8000009488047094800479B
:10019000FEE7FEE7FEE7FEE7FEE7FEE7FEE7FEE737
:1001A000FEE7FEE704480549054A064B7047000094
:1001B0005F150008ED000008D8000020D8060020D8
:1001C000D8020020D80200204FF0000200B51346EC
:1001D00094469646203922BFA0E80C50A0E80C5067
:1001E000B1F12001BFF4F7AF090728BFA0E80C5018
:1001F00048BF0CC05DF804EB890028BF40F8042B11
:1002000008BF704748BF20F8022B11F0804F18BF7D
:1002100000F8012B7047704770477047754600F033
:100220002BF8AE4605006946534620F00700854688
:1002300018B020B5FFF7B6FFBDE820404FF000062C
:100240004FF000074FF000084FF0000B21F00701BE
:10025000AC46ACE8C009ACE8C009ACE8C009ACE801
:10026000C0098D46704710B50446AFF300802046A4
:10027000BDE81040FFF781BF0048704774000020C0
:1002800001491820ABBEFEE726000200704700F0CF
:100290000F01000900EB800001EB4000C0B2704785
:1002A000FEE770470A21B0FBF1F201FB1202B0FB3E
:1002B000F1F042EA0010C0B2704700002DE9F84F9B
:1002C000DFF8B8910024A9F1040B23460F2709F1A8
:1002D000040AABF1040EC9E00125A5402A40AA4258
:1002E0007DD1674ED1F804C0ACEB0608B44532D0DE
:1002F00014DCBCF1030F3AD009DCBCF1000F2AD0AA
:10030000BCF1010F1CD0BCF1020F31D11DE0BCF1DA
:10031000110F17D0BCF1120F2AD119E0B8F5881FC0
:1003200019D006DCB8F5803F15D0B8F5801F1FD175
:1003300011E0B8F5001F0ED0B8F5041F18D10AE07F
:10034000CB6815E0CB681B1D12E0CB6808330FE0CB
:10035000CB680C330CE08B682BB1012B4FF00803FA
:1003600003D0456104E0042302E0056100E00023BE
:10037000FF2A01D8064601E000F104064FEA840591
:1003800001D9A5F12005D6F8008007FA05FC28EA76
:100390000C0803FA05F548EA0508C6F800804D6820
:1003A000ED0062D5374DAE6946F00106AE61AD692C
:1003B00024F0030605F001050095334D06EB050C0E
:1003C000DCF80850A607360F07FA06F825EA0805F4
:1003D000DFF8B880404503D14FF0000817E044E053
:1003E000DFF8AC80404502D14FF001080FE0DFF8A4
:1003F000A480404502D14FF0020808E0DFF8988061
:10040000404502D14FF0030801E04FF0040808FA1C
:1004100006F848EA0508CCF808804D68D9F800606D
:10042000ED024D4601D5164300E096432E604D681F
:10043000DAF80060AD02554601D5164300E0964358
:100440002E604D68DBF80060AD035D4601D51643B4
:1004500000E096432E604D68DEF80060ED037546BF
:1004600001D5164300E096432E60641C0D682A46B1
:10047000E5407FF431AFBDE8F88F0000080401408B
:10048000000011100010024000000140000801406F
:10049000000C014000100140001401400148806838
:1004A000704700000400002070B5040025D094F8C7
:1004B0003D00002520B984F83C50204600F076FA33
:1004C000242084F83D002068016821F001010160CA
:1004D0002068016841F4004101602068016821F44E
:1004E0000041016000F0B0FB4D4A6168914201D8C3
:1004F0004C4900E04C49884201D2012070BD4B4973
:100500002368B0FBF1F15E6826F03F060E435E60A3
:100510006368934206D94FF4967359434FF47A7344
:10052000B1FBF3F12368491C1E6A26F03F063143F4
:1005300019626168914210D84900401EB0FBF1F287
:10054000521CC2F30B02042A01D2042022E0B0FBA9
:10055000F1F0401CC0F30B001CE0A268F2B301EB09
:10056000C10303EB0116431EB3FBF6F35B1C43F41C
:1005700080431B0549D092B301EBC10202EB01118C
:10058000401EB0FBF1F0401CC0F30B0040F4804073
:1005900040F400402168CA694CF6FF739A43104347
:1005A000C861D4E9071001432068026822F0C00244
:1005B00011430160D4E9030101432068826848F2D5
:1005C000FF339A4311438160D4E905010843216850
:1005D000CA6822F0FF021043C86001E00EE016E096
:1005E0002068016841F0010101602564202084F841
:1005F0003D00256384F83E50002070BD01EB4106AC
:10060000431EB3FBF6F35B1CB3E70120C2E701EB2B
:100610004101401EB0FBF1F0401CC0F30B00B7E7F6
:10062000A086010080841E0000093D0040420F00AA
:100630002DE9F84F0025DDF82890984617468A46A0
:1006400004460095FFF72AFF064694F83D0020284F
:100650007AD11923012286492046009600F0D6FD62
:100660000028F5D194F83C0001286DD0012084F8D1
:100670003C0020680168C90703D1016841F001010D
:1006800001602068016821F400610160222084F883
:100690003D00102084F83E0025646762A4F82A809B
:1006A000608D20857348E06233464A4651462046B5
:1006B00000F0BCFC00287CD1208DDFF8BC81202715
:1006C00068B1012814D00228206801681ED041F4C6
:1006D000806101602068416980690090BBE020680A
:1006E000416981690091016841F400710160B2E0E3
:1006F0002068016821F48061016072B62068416958
:1007000081690091016841F400710AE041F40061DF
:10071000016072B62068416981690091016821F425
:100720008061016062B696E0032865D801280CD08C
:1007300002284B464FF000024146204600960BD05F
:1007400000F064FDA8BB0CE090E03246494620462C
:1007500000F002FE68BB71E000F058FD48BB72B6C5
:1007600033E02068016821F48061016072B620687E
:100770000069616A0870606A401C6062208D401EDA
:100780002085608D401E60853C4846F2A8110068B7
:10079000B0FBF1F0C0EBC00000EB80000090401E09
:1007A000009007D020684069C04340070DD50098ED
:1007B000F5E727E044F8305F6773A573206940F0E0
:1007C0002000206162B625731CE02068016841F4B6
:1007D0000071016020680069616A0870606A401CED
:1007E0006062218D491E2185618D491E618562B639
:1007F00021680969017025E032464946204600F02B
:10080000ABFD10B10120BDE8F88F20680069616A76
:100810000870606A401C6062208D401E81B2218594
:10082000608D401E608520684269D243520712D411
:10083000032903D1016821F4806101602068006907
:10084000616A0870606A401C6062208D401E2085CD
:10085000608D401E6085208D00287FF465AF84F890
:100860003D7084F83E5084F83C50CCE70220CAE743
:10087000020010000000FFFF040001001000002033
:100880002DE9F84F1F4690468A460446DDF8289029
:10089000FFF704FE054694F83D0020287FD1192378
:1008A000012240492046009500F0B0FC002876D196
:1008B00094F83C00012872D0012084F83C002068A4
:1008C0000168C90703D1016841F001010160206896
:1008D000016821F400610160212084F83D001020AE
:1008E00084F83E0000262664C4F824806785608D65
:1008F00020852D48E0622B464A465146204600F0AE
:100900000BFC90B9206841698069009036E02A4666
:100910004946204600F058FD50B1206C042804D10F
:100920002068016841F4007101600120BDE8F88F82
:10093000606A216800780861606A401C6062618DAD
:10094000491E6185218D491E89B22185226853691E
:10095000DB435B070BD451B100781061606A401C27
:100960006062608D401E6085208D401E20852A4675
:100970004946204600F01EFC0028CED1208D0028DC
:10098000C5D154F83D0B016841F40071016020208D
:1009900004F81E09E67766770020C7E7FFE7022024
:1009A000C4E70000020010000000FFFF10B586B091
:1009B0000021009101910291039100680F49884242
:1009C0001AD10F4CA06940F00800A061A0696946E7
:1009D00000F008000490C020009012200190032035
:1009E00003900848FFF76AFCE06940F40010E061FA
:1009F000E06900F40010049006B010BD00540040FF
:100A000000100240000C0140024881680278114445
:100A10008160704704000020074810B5016841F06C
:100A200010010160032000F067F80F2000F006F8C5
:100A300000F024F8002010BD0020024070B50D4DDC
:100A400004464FF47A712878B1FBF0F00A4909683E
:100A5000B1FBF0F000F0BEFA48B9102C07D200222A
:100A60002146501E00F028F800206C6070BD012067
:100A700070BD000004000020100000200C4808B5E4
:100A8000816941F001018161816901F001010091F9
:100A9000C16941F08051C161C06900F0805000908F
:100AA0000448416821F0E06141F00071416008BDF7
:100AB0000010024000000140F0B40E4B1B680C46D1
:100AC000C3F30223C3F10705042D00D90425191D22
:100AD000072901D2002300E0DB1E012606FA05F1FA
:100AE000491E214099409E40761E16403143F0BC7D
:100AF00000F037BD0CED00E0064900F00702086881
:100B00004FF6FF03184040EA0220034A10430860F2
:100B1000704700000CED00E00000FA052DE9F047F9
:100B20000F46050061D0434E306800F00700B84220
:100B300009D2306820F0070038433060306800F098
:100B40000700B84251D128683B4C810712D54007B5
:100B500003D5606840F4E06060602878000703D542
:100B6000606840F4605060606068A96820F0F00040
:100B7000084360602878C00728D06868012810D032
:100B80002168022810D0890700292EDA616821F037
:100B9000030101436160FFF781FC804641F288391F
:100BA0000DE021688903EFE78901EDE7FFF776FCA7
:100BB000A0EB0801494502D90320BDE8F087606831
:100BC000696800F00C00B0EB810FEFD1306800F0E5
:100BD0000700B8420BD9306820F007003843306076
:100BE000306800F00700B84201D00120E5E728781E
:100BF000400705D56068E96820F4E060084360605C
:100C00002878000706D56068296920F4605040EA1A
:100C1000C100606000F028F86168084AC1F3031160
:100C2000515CC8400649086006480068FFF706FFA7
:100C30000020C2E700200240001002405E160008BB
:100C40001000002008000020044805490068496899
:100C5000044AC1F30221515CC840704710000020D3
:100C6000001002406E1600080E4A51680E4801F04E
:100C70000C03042B11D0082B0FD10C48C1F3834374
:100C8000C903C05C0AD55168084AC1F34041921EAD
:100C9000515C054A5043B0FBF1F0704704494843AA
:100CA000704700000010024000127A004E16000843
:100CB00000093D002DE9F84F040070D02078C04DA8
:100CC000C00749D06868C0F38100012807D0686870
:100CD000C0F38100022809D16868C00306D52868DE
:100CE000800339D560680028E7D035E06068B0F54A
:100CF000803F0BD010B1B0F5A02F11D0286820F4A0
:100D000080302860286820F4802002E0286840F4C1
:100D100080302860606890B1FFF7C0FB06460AE0AB
:100D2000286840F480202860F0E700BFFFF7B6FB9A
:100D3000801B642873D828688003F7D50CE0FFF780
:100D4000ADFB064605E000BFFFF7A8FB801B64284B
:100D5000F0D828688003F7D420789A4E80074FF0A7
:100D600001094FF0000839D5686810F00C0F07D062
:100D70006868C0F38100022809D16868C00306D4FE
:100D80002868800714D52069012808D110E020695F
:100D9000B0B1C6F80090FFF781FB074605E00AE115
:100DA000FFF77CFBC01B0228C4D828688007F7D552
:100DB0002868616920F0F80040EAC10028600DE071
:100DC000C6F80080FFF76AFB074604E0FFF766FB02
:100DD000C01B022823D828688007F7D42078000792
:100DE0002CD57948A169D9B1C0F80090FFF756FB1E
:100DF000074604E0FFF752FBC01B02280FD8686AC1
:100E00008007F7D571484FF4FA510068B0FBF1F054
:100E1000009000BF0098411E0091FAD20EE080E0E1
:100E2000C0F80080FFF73AFB074604E0FFF736FB07
:100E3000C01B022875D8686A8007F7D4207840075D
:100E400060D5E8690027C00008D4E86940F0805008
:100E5000E861E869012700F0805000905C48016873
:100E6000C90513D40168834641F480710160FFF71E
:100E700015FB824606E000BFFFF710FBA0EB0A005F
:100E800064284ED8DBF80000C005F5D5E0680128DD
:100E90000AD008B1052813D0286A20F00100286282
:100EA000286A20F0040002E0286A40F0010028626D
:100EB000E06841F2883B98B1FFF7F0FA82460BE018
:100EC000286A40F004002862EEE700BFFFF7E6FA68
:100ED000A0EB0A0159455AD8286A8007F6D50CE0DC
:100EE000FFF7DCFA824605E0FFF7D8FAA0EB0A012B
:100EF00059454CD8286A8007F6D41FB1E86920F01C
:100F00008050E861E06988B36968C1F38101022912
:100F100044D00228C6F8608004D0FFF7BFFA044628
:100F200038E034E0FFF7BAFA074604E0FFF7B6FA14
:100F3000C01B02282BD828688001F7D4206AB0F59E
:100F4000803F05D16868A16820F4003008436860DC
:100F5000D4E908010843696821F474110843686002
:100F6000C6F86090FFF79AFA044606E025E000BF55
:100F7000FFF794FA001B022809D828688001F7D5EA
:100F80001BE000BFFFF78AFA001B022802D90320EA
:100F9000BDE8F88F28688001F4D40EE00128F7D06E
:100FA0006868226A00F48031914204D1616A00F4D9
:100FB0007010884201D00120EAE70020E8E7000035
:100FC0000010024000004242800442421000002013
:100FD0000070004010B5401EB0F1807F01D30120A9
:100FE00010BD4FF0E02460610F21601700F0B9FAE6
:100FF0000020A06107202061002010BDFEE70168ED
:101000004A69D24352050FD46FF480624A610021CD
:1010100040F8301F202242738173026942F00402BB
:101020000261017301207047002070472DE9F84FDD
:101030000446C06A1E4693460D4621680A6842F47B
:1010400080620A60082807D0012805D010F5803F8B
:1010500002D0206B112804D12068016841F480710E
:1010600001604FF001195B46002249462046009678
:1010700000F0CCF84FF4007840B120680068C0055B
:1010800001D5C4F840800320BDE8F88F2069DFF85F
:1010900084A0B0F5804F0FD00620216800EAD51754
:1010A00047F0F000086133465A460AF1060120462F
:1010B00000F0F4F858BB03E0E8B240F001001CE097
:1010C0002168E8B2086133465A465146204600F08E
:1010D000E5F8E0B92068416981690091016841F44F
:1010E000807101605B46002249462046009600F070
:1010F0008DF80028C1D147F0F1002168086133461E
:101100005A465146204600F0C9F80028BCD00120BC
:10111000BAE7000002000100F8B50446C06A1E46A6
:101120000D461746082807D0012805D010F5803F46
:1011300002D0206B122804D12068016841F480712C
:101140000160134600224FF001112046009600F086
:101150005DF840B120680068C00502D54FF400700A
:1011600020640320F8BD2069B0F5804F0ED0062022
:10117000216800EAD51040F0F000086133463A4695
:101180000B49204600F08AF878B902E005F0FE002D
:1011900000E0E8B221680861054933463A46891FF4
:1011A000204600F07BF80028DCD00120F8BD0000CC
:1011B0000800010070B516460D4604461EE02046A4
:1011C000FFF71DFF08B1012070BD681C16D0FFF7A6
:1011D00065F9801BA84200D885B920684069C043E2
:1011E00040070BD5002044F8300F20216173A07315
:1011F000216941F0200121612073E4E72068406902
:10120000C0434007DBD4002070BD00002DE9F0474B
:10121000984617460D460446C1F30746DDF8209070
:101220002AE000BFB8F1FF3F26D0FFF737F9A0EB67
:101230000901414502D8B8F1000F1DD12068012EE7
:1012400016D0806925EA00000004000C12D00020AE
:10125000B84211D1002044F8300F20216173A073EF
:10126000216941F02001216120730120BDE8F08750
:101270004069E7E70120EBE72068012E0AD080698A
:1012800025EA00000004000C06D00020B842C9D0B6
:101290000020EBE74069F3E70120F7E72DE9F0478D
:1012A000984616460D4604464FF000094FF0200AB6
:1012B000C1F3074723E020684069C043400515D4C7
:1012C0002068016841F40071016021686FF480605A
:1012D0004861C4F8309084F83DA084F83E90216CB9
:1012E00041F00401216484F83C9021E0701C06D098
:1012F000FFF7D4F8A0EB0800B04203D816B1012FD5
:101300001FD021E02068012F15D0806925EA000058
:101310000004000C18D000BF44F8309F84F80DA0E2
:1013200084F80E90216941F02001216184F80C902D
:101330000120BDE8F087406925EA00000004000CA8
:10134000EAD12068406901E02068806925EA000050
:101350000004000CAFD1ECE72DE9F04100259046E8
:101360000E460446202728E04069C043C0060CD43E
:1013700054F8301B6FF01000486144F8105967773B
:10138000A577206A2062257714E0FFF787F8A0EBA5
:101390000800B04200D886B920684069C0434006C2
:1013A0000BD544F8305F6773A573206940F02000C7
:1013B000206125730120BDE8F08120684169C9439F
:1013C0004906D1D40020F6E770B516460D4604460E
:1013D0001EE02046FFF713FE08B1012070BD681C17
:1013E00016D0FFF75BF8801BA84200D885B92068AB
:1013F0004069C04300060BD5002044F8300F20217F
:101400006173A073216941F0200121612073E4E739
:1014100020684069C0430006DBD4002070BDFEE7B1
:10142000FEE77047016070477FB5044600206425E1
:101430008DF80C000095012303AAD0212068FFF746
:101440001FFA0095072301AAD0212068FFF7F0F8C2
:101450009DF80400FEF71BFF20719DF80500FEF7C4
:1014600016FF60719DF80600FEF711FFA0719DF850
:101470000700FEF70CFFE0719DF80800FEF707FF7C
:1014800020729DF80900FEF702FF60729DF80A00C5
:10149000FEF7FDFEA0727FBD0EB5034600208DF85D
:1014A00004001879FEF7FEFE8DF805005879FEF766
:1014B000F9FE8DF806009879FEF7F4FE8DF8070026
:1014C000D879FEF7EFFE8DF80800187AFEF7EAFEED
:1014D0008DF80900587AFEF7E5FE8DF80A00987A33
:1014E000FEF7E0FE8DF80B006420009018680823DA
:1014F00001AAD021FFF7C4F90EBD7047FFF784BAE7
:1015000030B58FB028216846FEF75EFE14210AA888
:10151000FEF75AFE01210804CDE9001000240294D0
:1015200002250491CDE907504FF4E0100990684678
:10153000FFF7C0FB08B172B6FEE70F20CDE90A0540
:101540004FF48060CDE90C4002210AA80E94FFF709
:10155000E5FA002801D072B6FEE70FB030BD704743
:10156000FEE70907090E002804DB00F1E02080F8FF
:101570000014704700F00F0000F1E02080F8141D07
:101580007047000008B5FFF747FAFFF7B9FF2A4890
:10159000816941F020018161816901F020010091A0
:1015A000816941F004018161816901F004010091C8
:1015B000816941F0080181618069204900F00800DB
:1015C00000901F484FF4804201601E494160002195
:1015D0008160C0E9031241618161C1610162FEF76E
:1015E00063FF08B172B6FEE7154901F15400FFF739
:1015F00019FF13480A215430032201711B21417144
:1016000002218171C2710C22027241721521817214
:10161000FFF742FF0C4C4FF47A7500BFFEF73EFF18
:101620002168401AA842F9D305485430FFF7FCFE60
:10163000FEF734FF2060F1E7001002400054004044
:1016400014000020A0860100000000200102020317
:101650000405060708090A0B0C0D0E0F10100000F8
:101660000000000000000102030406070809000052
:10167000000001020304000098160008000000208A
:101680001400000028010008AC1600081400002017
:10169000C406000044010008000000000100000032
:0C16A00010000000000000000024F40016
:04000005080000ED02
:00000001FF
