:020000040800F2
:100000003807002035020008DB2D000821290008F0
:10001000D92D0008951B00081F2F000800000000C4
:10002000000000000000000000000000B92E0008E1
:10003000971B000800000000DD2D0008BB2E000803
:100040004F0200084F0200084F0200084F0200084C
:100050004F0200084F0200084F0200084F0200083C
:100060004F0200084F0200084F0200084F0200082C
:100070004F0200084F0200084F0200084F0200081C
:100080004F0200084F0200084F0200084F0200080C
:100090004F0200084F0200084F0200084F020008FC
:1000A0004F0200084F0200084F0200084F020008EC
:1000B0004F0200084F0200084F0200084F020008DC
:1000C0004F0200084F0200084F0200084F020008CC
:1000D0004F0200084F0200084F0200084F020008BC
:1000E0004F0200084F0200084F02000800F002F81B
:1000F00000F090F80AA090E8000C82448344AAF132
:100100000107DA4501D100F085F8AFF2090EBAE82F
:100110000F0013F0010F18BFFB1A43F0010318473B
:100120002837000048370000103A24BF78C878C14B
:10013000FAD8520724BF30C830C144BF04680C60ED
:10014000704700000023002400250026103A28BF35
:1001500078C1FBD8520728BF30C148BF0B60704739
:100160006E2900F08181702900F0C382662903F0B6
:10017000D382652903F0D082672903F0CD826129FB
:1001800003F0CC8203681B0A28BF41F08001692973
:1001900000F02E81642900F02B81752900F0288160
:1001A0006F2900F05082782900F08F82E92900F051
:1001B000EB81E42900F0E881F52900F0E581EF29E1
:1001C00000F04D82F82900F08E820368DB0928BF19
:1001D00041F08001632900F09187732900F0968730
:1001E000E32900F0A187F32900F0A68700207047DB
:1001F0001FB500F0F3FF04000020002103F076FAA1
:10020000401C60600020002103F05AFAE0601FBD2E
:1002100010B510BD00F0B4FF1146FFF7E9FF03F081
:10022000E9F901F091F803B4FFF7F2FF03BC01F024
:10023000D9F800000948804709480047FEE7FEE773
:10024000FEE7FEE7FEE7FEE7FEE7FEE7FEE7FEE786
:1002500004480549054A064B704700001D2F000859
:10026000ED00000838010020380700203803002086
:10027000380300201CB50C46064B7B4469460090B1
:10028000204600F00AF904460020694600F018F9FB
:1002900020461CBD4302000010B5431C02E010F8CC
:1002A000011B71B18107FAD14FF0013202C88C1ADB
:1002B0008C4314EAC211F9D0C01A0A0603D0C01E3A
:1002C00010BDC01A10BD0A0401D0801E10BD090265
:1002D000FCD0401E10BD4FF0000200B513469446FE
:1002E0009646203922BFA0E80C50A0E80C50B1F18E
:1002F0002001BFF4F7AF090728BFA0E80C5048BFA2
:100300000CC05DF804EB890028BF40F8042B08BF3F
:10031000704748BF20F8022B11F0804F18BF00F83B
:10032000012B704770477047704770B50446856968
:100330000068C10601D5302600E02026C00707D09E
:1003400070BDD4E9012130469047206A401C2062EC
:100350006D1EF6D570BD70B5044685690078C0077E
:1003600007D170BDD4E9012120209047206A401CAC
:1003700020626D1EF6D570BD09684A0501D540B2F0
:100380007047C905FCD500B2704709684A0501D518
:10039000C0B27047C905FCD580B2704770B50C4635
:1003A0000546012A05D02878800600D5EA69002391
:1003B00002E0012305E05B1C934202D2E05C0028CE
:1003C000F9D1A869E618C01AA861286A18442862F9
:1003D0002846FFF7AAFF04E0D5E9012114F8010B34
:1003E0009047B442F8D32846FFF7B5FF70BD000030
:1003F0002DE9F0410646002410687529314616A5FE
:1004000010D0FFF7B9FF002802DA404213A507E039
:1004100031688A0701D512A502E0490704D511A564
:10042000012401E0FFF7B1FF00210A2206F12407B1
:1004300009E0B0FBF2FCB0FBF2F302FB1C00303031
:1004400078541846491C0028F3D123462A463046E2
:10045000BDE8F04100F061BA000000002D0000008E
:100460002B0000002000000011680268006A53059C
:1004700001D508700AE0D30501D5088006E013060F
:1004800003D5C217C1E9000200E0086001207047EF
:1004900001694A1C02610878704700B58FB0CDE948
:1004A00001310021059105497944CDE90310114638
:1004B000684600F029F90FB000BD0000E5FFFFFF1E
:1004C0000A6802F8010B0A60704700002DE9FF5F1F
:1004D00015468A460446DFF8AC80F8440027D8E980
:1004E00000103E46CDE9001010E03AF816106A46BA
:1004F00002A800F025FE411C07D02178890603D50B
:10050000E269391891420DD80744761C207880069C
:1005100002D5E069B84205DDAE42E6DB3AF81600E6
:100520000028E2D1A069C01BA0612046FFF7FDFEB4
:10053000D8E90010CDE90010002017E03AF81810B3
:100540006A4602A800F0FCFDB0F1FF3F81460BD0E7
:1005500000250DF1080B05E0D4E901211BF8050089
:1005600090476D1C4D45F7D308F10100B04280461D
:10057000E4DB206A384420622046FFF7ECFEBDE849
:10058000FF9F00006E3200002DE9F0418046D21D31
:1005900022F007020025D2E90002F52915A614D0A1
:1005A000011E72F1000106DA0023D0EB030063EBB9
:1005B000020211A608E0D8F800108B0701D50FA69B
:1005C00002E0490701D50EA601251146002408F1D5
:1005D000240704E000F05CF930323A55641C50EA1C
:1005E0000102F7D12B46324621464046BDE8F04194
:1005F00000F093B9000000002D0000002B00000067
:100600002000000030B4002100F1240408E002F0D2
:100610000705D208303542EA4372DB086554491CAD
:1006200052EA0305F3D10468002310A2250707D579
:10063000A40600D421B1C46901230DA2641EC461C3
:1006400030BC00F06AB910B5044621461068FFF7C7
:100650009CFE02462046BDE810400023D2E7D21D92
:1006600022F00701D1E90023CCE7000000000000E0
:1006700030000000F0B40D460188090502D5214C78
:100680007C4402E01F4C7C440E34002100F124061F
:1006900008E002F00F071209E75D42EA03721B0946
:1006A0007754491C52EA0307F3D10278002312075A
:1006B00004D5702D06D009B1022311342246F0BCB6
:1006C00000F02BB901231034F8E770B504460D464D
:1006D00021461068FFF759FE024629462046BDE82C
:1006E00070400023C6E7D21D22F00703D3E90023A0
:1006F000C0E70368126843F0200303600823C36166
:100700000023B7E7D03000002DE9F05F89460446AA
:100710004FF0000ADFF874B1FB44C0F820A0204677
:10072000E1688847002874D0252806D0D4E9012143
:100730009047206A401C2062F1E700265F46204671
:10074000E16888472028054607DB312D05D2781956
:1007500010F8200C08B10643F1E7B00701D526F0E8
:100760000406C4F81CA00027C4F818A02A2D09D03C
:10077000284602F0F9FB38B304EB8708303DC8F88F
:10078000185019E059F8041B204604EB87029161C8
:10079000E1688847012F054618D1E069002820DA72
:1007A00026F020061DE0D8F8180000EB800005EBCD
:1007B00040003038C8F818002046E16888470546F0
:1007C00002F0D2FB0028EED1012F0AD02E2D08D145
:1007D0002046E16888477F1C0546022F46F0200628
:1007E000C4DBA069002803DA404246F00106A0619C
:1007F000F00701D026F010066C2D0BD0682D09D023
:100800004C2D39D06A2D35D0742D35D07A2D33D07A
:1008100016E038E0E1682F4620468847B842054692
:1008200009D16C2F26D04FF48060E1680643204642
:100830008847054604E06C2F1AD04FF480700643B9
:100840000DB3A5F14100192802D8203546F4006601
:100850004A462946204626604E46FFF781FC80B175
:1008600001280BD0F61D26F0070000F1080956E715
:100870004020E4E78020D8E70020D6E706F104090D
:100880004DE7284652E7206ABDE8F09F603000003F
:1008900030B5B0F10A024FEA900E71F100034EEA52
:1008A000817EB0EB0E0061EB91014FEA101E4EEA23
:1008B000017E10EB0E0041EB11114FEA102E4EEAB3
:1008C000016E10EB0E0041EB11214FEA104E4EEA83
:1008D000014E10EB0E0041EB1141401841F10001B7
:1008E0004FEAD00040EA41704FEAD10110EB800599
:1008F0004FEA810444EA907444EB01046D1944EB1F
:100900000404521BA3414FF0000348BF0A3200D534
:1009100030BD401C41F1000130BD2DE9F0470D46CE
:1009200099469246044600F124080168880604D5D9
:10093000E06921F01001216000E00120A84201DD02
:10094000471B00E00027A1697A1902EB0900081A89
:10095000A0612078C00602D42046FFF7E6FC0026FE
:1009600008E0D4E901211AF806009047206A401CEB
:10097000761C20624E45F4DB2078C0060AD520465E
:10098000FFF7D3FC06E0D4E9012130209047206A2C
:10099000401C2062381EA7F10107F4DC07E0D4E90F
:1009A000012118F805009047206A401C2062281E8B
:1009B000A5F10105F3DC2046FFF7CDFC2078000609
:1009C00002D50220BDE8F0870120FBE770472DE942
:1009D000FF4F0C461E464FF0FF378BB0D2E90001A7
:1009E000DDF860800A908A46C1F30A5505B93D4694
:1009F000002108464FF00000BAF1000F00F440005B
:100A000005DA00EB80004FF4400101EA50004FEAA4
:100A10009059B9F1010F00DDB9460A9850EA4A0031
:100A20000ED044F61050A5F2FF3545432F14B8F10F
:100A3000000F1ED07542291E1EDDC9F100021CE008
:100A4000B8F1010F4FF0000001D0302103E0F24374
:100A500005E02154401CB042FBDB3046002200215F
:100A600021540B99C1F80880C1E900200FB0BDE8FE
:100A7000F08FBD1B6D1CDEE74A4600DA694206A80E
:100A800000F0F0FB06AB93E8070003AB83E8070038
:100A900050460A9900F0ADFC8DE80700A0F5005023
:100AA0001F3800900398002D0ADD42F21F014A46CC
:100AB0000844002303A90390684600F016FF09E0EC
:100AC000A0F500504A461F38002303A9039068464A
:100AD00000F020FF8DE807000004000C03D04FF069
:100AE000FF30410800E01046B8F1000F03D00022AB
:100AF000009215461EE0751E05D4FFF7C9FE303280
:100B000062556D1EF9D5B3460122084302D000227A
:100B10007F1C04E02078302801D100227F1E002AAB
:100B2000099784D01DE0112D07DAFFF7B1FE3032AE
:100B300062556D1C50EA0102F5D1084302D00098BD
:100B4000C8B10EE00021681E05E0235C625C6354BE
:100B50002254401E491C8142F7DBAB46A81B401EB5
:100B60000990002004F80B000B98099AC0F808803F
:100B7000C0E9002B7AE711264FF0000857E72DE96E
:100B8000F04F88460446D21D22F0070191B0D1E90A
:100B90000001CDE90A0102F0C3F902460B98C00F2B
:100BA00001D02D2007E02068810701D52B2002E02D
:100BB000202101EAC000032A099001D0072A05DBA1
:100BC00003464146204600F00DFB0BE120788006ED
:100BD00001D5E06900E00620B8F1650F814606D036
:100BE000B8F1660F18D0B8F1670F70D131E000206E
:100BF000B9F1110F009001DB112301E009F10103AC
:100C00000AAA01A90CA8FFF7E2FEDDE90C70002694
:100C100009F10105834647E001204B4600904FF063
:100C200000470AAA01A90CA8FFF7D1FEDDE90DB023
:100C30000C995D46002610B909F101000D18B9EBB9
:100C4000050003D4C0F1FF3609F10105A5EB090049
:100C50002BE0B9F1010F01DA4FF001090020B9F1E1
:100C6000110F0090484601DD112300E003460AAA57
:100C700001A90CA8FFF7ABFEDDE90C704D4600267C
:100C80008346207800070AD4AB4500DA5D4601A808
:100C9000012D04DD411911F8011C302907D04F4501
:100CA00002DA17F1040F04DA012082460FE06D1E0C
:100CB000EEE7002F02DCED1B3E4403E0781CA84267
:100CC00000DD7D1CB81B00F1010A4FF000472078C1
:100CD000000703D4AA4501DB4FF0FF3A0021B7F12A
:100CE000004F0DF143088DF8431024D002202B2330
:100CF000002F01DA7F422D230A21021EA0F10100FC
:100D000000DC5FB197FBF1FC97FBF1F201FB1C7C6F
:100D100017460CF1300C08F801CDEEE7A8F1010000
:100D200003702188090501D5452100E06521A0F166
:100D3000010800F8011C09980FA9A1EB0807FF1D85
:100D400000B10120411901EBEA70A1693844081A89
:100D5000401EA0612078C00602D42046FFF7E5FAC5
:100D6000099828B1D4E901219047206A401C2062EB
:100D70002078C00622D52046FFF7D7FA1EE0002EC5
:100D800004DBB34502DD01A8805D00E03020D4E93A
:100D900001219047206A401C2062761CAAF10100C4
:100DA0005FEA000A0AD100F019FAC0680168405CE5
:100DB000D4E901219047206A401C2062281EA5F139
:100DC0000105DCDC07E0D4E9012118F8010B9047AC
:100DD000206A401C2062381EA7F10107F3DC204680
:100DE000FFF7B9FA032011B041E600002DE9F04FFA
:100DF00004460D46D21D22F0070089B0D0E90097C5
:100E00004846394602F08CF80246F80F01D02D23EF
:100E100007E02068810701D52B2302E0202101EAA9
:100E2000C0038DF820300BB1012000E00020032A20
:100E3000824601D0072A04DB2946204600F0D2F979
:100E40003FE12078800601D40D2500E0E569C7F375
:100E50000A560D2D49DA00214FEA175B08464FF07C
:100E60000000002F00F4400007DA00EB80004FF490
:100E7000400100EBD07001EA60008115012901DD1D
:100E80004FF0FF3100224FEA850CBCF1180F06D35A
:100E90001346ACF118004FF08052C24003E04FF40B
:100EA000801323FA0CF30CF10C0CBCF1200F04D3CB
:100EB000ACF1200C09FA0CF001E007FA0CF0002963
:100EC0004FF0004801DD18B90FE00ED140450CD3BA
:100ED00019EB02095F4121B9404502D19F4329EA3C
:100EE0000209BBEB175F00D0761C2088000502D5F5
:100EF0007B48784402E07A487844193808AA3023BD
:100F000002F80A30037C0AF10101002E0AF1020AFC
:100F100053546A4602DC4FF0300101E04FF03101DA
:100F20004FF001088DF8001002D0A6F2FF3603E062
:100F300059EA470100D06B4E002D02DC21780907E9
:100F400004D54FF002082E218DF80110C44600216F
:100F50000BE0C7F303433F01C35C491C6D1E02F85D
:100F60000830052908F1010801DA002DF1DC002123
:100F70000CE000EB1973491C1B786D1E082902F860
:100F800008304FEA091908F1010801DA002DF0DCF8
:100F900021688B0602D516E0A8F10108E04505DDC1
:100FA00002EB080313F8013C302BF5D0B8F1000F29
:100FB00009DD02EB080313F8013C2E2B03D10907CE
:100FC00001D4A8F10108002D05DD3E2102F808102A
:100FD0006D1E08F10108407C002E02F8080008F19F
:100FE000010804DA2D20764202F8080002E02B20E6
:100FF00002F808000A214FF47A70864208F10108CD
:101000000BDB96FBF0F3303302F8083096FBF0F37D
:1010100008F1010800FB136601E0642E0CDB64207C
:1010200096FBF0F3303302F8083096FBF0F308F14A
:10103000010800FB136601E00A2E06DB96FBF1F0C7
:10104000303002F8080008F1010896FBF1F001FBCE
:101050001060303002F80800A16908F1010808EBBF
:10106000050202EB0A00081AA0612078C00602D42B
:101070002046FFF75AF9216A08AE01EB0A00206208
:1010800004E0D4E9012116F8010B9047BAF1010AF6
:10109000F7D22078C00602D52046FFF746F96E4603
:1010A00009E016F8010B3E280FD0D4E90121904742
:1010B000206A401C2062B8F10108F2D22046FFF7F6
:1010C0004AF909B00320BDE8F08F206A2844206265
:1010D00003E0D4E90121302090476D1EEBD3F8E7FF
:1010E000AA28000002FCFFFF10B5436913B1AFF35B
:1010F000008001E0FFF752F9012010BD127800F1E5
:1011000024010A7000224A700122EDE711684FF0B5
:10111000FF32E9E710B5436913B1AFF3008001E096
:10112000FFF7D4F9012010BD128800F12401828458
:101130000022C2840122EDE711684FF0FF32E9E797
:1011400070B516460C46054600F040F8036893F863
:101150000101012806D0FF2C0FD8185D68B10120CD
:101160002C7070BDD3F807013246214603F20713F5
:1011700003442846BDE8704018474FF0FF3070BD6B
:10118000754600F0EBF8AE4605006946534620F080
:101190000700854618B020B5FFF75AF8BDE8204093
:1011A0004FF000064FF000074FF000084FF0000B23
:1011B00021F00701AC46ACE8C009ACE8C009ACE8D6
:1011C000C009ACE8C0098D467047000010B500F0BA
:1011D00005F8001D10BD00BF152500000048704730
:1011E000F40000202DE9F0411F4604460326016863
:1011F000072A01F4006004DB08B116A505E016A576
:1012000003E008B115A500E015A521F0100020604D
:10121000A069C01EA0610FB1401EA0612046FFF76B
:1012200084F84FB1D4E9012138469047206A401C28
:101230002062C01C206206E0206AFAE7D4E901219E
:1012400015F8010B9047761EF8D22046FFF783F879
:10125000BDE8F0814E414E006E616E00494E460081
:10126000696E66002DE9F047814616468AB035481A
:1012700078440DC88DE80D0032487844801C03ACDA
:101280000DC884E80D0041F69B300844372190FBDF
:10129000F1F290FBF1F5A5F1800501FB12041B3C76
:1012A00002D56442012000E00020DFF898A08046CB
:1012B0000027FA44AAF1BE0A0EE0E0070AD032463F
:1012C000684607EB470101230AEB810100F022FB8E
:1012D0008DE8070064107F1C002CEED1194F7F446D
:1012E000AE3F19E0E80715D007EB04100DF1180A1E
:1012F00090E80E008AE80E00C068F04201D198190B
:1013000008903246012306A903A800F003FB03ABB3
:1013100083E807006D10641C002DE3D14FF001033A
:1013200032466946B8F1000F03A802D000F0DDFA9A
:1013300001E000F0EFFAC9E90001C9F808200AB09D
:10134000BDE8F087BC25000010B50446AFF300806F
:101350002046BDE81040FEF766BF00000048704719
:10136000D40000204FF0013C50F8042B51F8043B0E
:101370009A4221D1A2EB0C03934313EACC1317D169
:1013800050F8042B51F8043B9A4215D1A2EB0C0300
:10139000934313EACC130BD150F8042B51F8043BC0
:1013A0009A4209D1A2EB0C03934313EACC13DBD08E
:1013B0004FF00000704700BFD01A01BAB1FA81F1B6
:1013C00001F0180122FA01F0CB40C1F12001DBB29B
:1013D000C0B2C01A2CFA01F3D11A914311EAC31119
:1013E000E6D1704701491820ABBEFEE72600020097
:1013F00070475FEA400C08BF91F0000F4FEA8C2362
:101400004FEAC12243EA51514FEA1C5018BF00F580
:10141000F0404FEA300018BF41F000415FEA6C5CD9
:1014200000F02980BCF1FF3F08BF40F080407047CA
:10143000130C06BF12044FF0100C4FF0000C130EEB
:1014400004BF12020CF1080C130F04BF12010CF1BF
:10145000040C930F04BF92000CF1020CD30F04BFD5
:1014600052000CF1010C11464FF00002A0F11F00D8
:10147000A0EB0C00704711F0004F08BF704731F02F
:1014800000413FF4D5AF0B0C06BF09044FF0100C20
:101490004FF0000C0B0E04BF09020CF1080C0B0FEF
:1014A00004BF09010CF1040C8B0F04BF89000CF17F
:1014B000020CCB0F04BF49000CF1010CCCF120034E
:1014C000A0EB0C0022FA03F302FA0CF241EA03014A
:1014D00000F10100704720F07F4C80EA030023F008
:1014E0007F47ACEB070303F57C5300F0004003F1AA
:1014F000FF032DE980494FEA154B09B44FEA144325
:1015000025EA0B4E24EA03480FF2042606EB1327C4
:1015100049083E785FEA320203FB0667C7F5000719
:1015200007FB06F64FEA54374FEAD64606F10206A5
:1015300007FB066CCCF1005C4FEA1C472CEA074C19
:1015400007FB06F40CFB06F504EB15464FEA96166E
:1015500034BF00204FF000404FEAD13706FB07FCB4
:101560004FEA1C4C0CFB0BF7D21B03FB0CF761EB97
:1015700007010CFB0EF7B0EB074072EB17420CFBB8
:1015800008F734BFA2EB0742B2EB074261EB174109
:101590004FEA0C444FEA910706FB07FC4FEA1C4C4C
:1015A0000CFB0BF7B0EBC74072EB573203FB0CF7A9
:1015B00034BFA2EBC742B2EBC74261EB57310CFB21
:1015C0000EF7B0EBC70072EB57720CFB08F734BF95
:1015D000A2EBC702B2EBC70261EB5771039F4FEA60
:1015E000816141EA921104EBCC044FEAD1374FEA12
:1015F000826206FB07FC42EA90124FEA80604FEAE3
:101600001C4C0CFB0BF7D21B03FB0CF761EB070127
:101610000CFB0EF7B0EB074072EB17420CFB08F720
:1016200034BFA2EB0742B2EB074261EB17414FEA2E
:101630008C554FEA910704EB9C2406FB07FC4FEA0C
:101640001C4C0CFB0BF7B0EBC74072EB573203FBA3
:101650000CF734BFA2EBC742B2EBC74261EB573184
:101660000CFB0EF7B0EBC70072EB57720CFB08F7E0
:1016700034BFA2EBC702B2EBC70261EB577115EBA7
:101680004C254FEA816141EA92114FEA82624FEAAA
:10169000D13742EA901206FB07FC44F100044FEAFE
:1016A00080604FEA1C4C0CFB0BF7D21B03FB0CF7C2
:1016B00061EB07010CFB0EF7B0EB074072EB174232
:1016C0000CFB08F734BFA2EB0742B2EB074261EB19
:1016D000174115EB1C154FEA813141EA92414FEA5F
:1016E000823242EA90424FEA80304FEA0C7644F16F
:1016F000000448EA03434EEA0B484FF0000EB2EBF9
:10170000080C71EB030724BF624639464EEB0E0E00
:101710004FF0000B0018524149414BEB0B0BB2EB61
:10172000080C71EB03077BF1000B24BF62463946BE
:101730004EEB0E0E4FF0000B0018524149414BEB9F
:101740000B0BB2EB080C71EB03077BF1000B24BF12
:10175000624639464EEB0E0E51EA020718BF46F0BC
:10176000010616EB0E7655F1000254F1000103D587
:10177000BDE88901BDE80088BDE88901BDE80048F1
:10178000B619524141EB0101A3F10103704780807A
:101790007F7E7D7C7B7A79787776767574737271CB
:1017A00071706F6E6E6D6C6C6B6A6A696868676683
:1017B00066656464636362616160605F5F5E5E5D15
:1017C0005D5C5C5B5B5A5A59595858575756565589
:1017D00055555454535352525251515050504F4FEB
:1017E0004F4E4E4D4D4D4C4C4C4B4B4B4A4A4A493B
:1017F000494948484847474747464646454545447E
:101800004444444343434342424242414141002B0A
:101810009C4630D477002BD01CB54FEA370703B471
:101820004FF010004FF01001BAF1000F06D0BCF1DC
:10183000000FDCBF40F0080040F008014FF000004E
:101840000FBCBDE810400BF1010BBBF1010F08BF4D
:101850005FEA170722BF12F1010211F101014FF0F7
:10186000004143F1000300F0004043EA00007047EC
:10187000F9D35708D0E746EA064613F1400F4FEA7E
:1018800016461FDD13F1200FDFBF16430A46002165
:1018900020335B42BED0C3F1200746EA064602FA77
:1018A00007F74FEA164646EA0706C3F1200722FA71
:1018B00003F201FA07F721FA03F14FF0000342EABD
:1018C0000702A7E746EA020646EA06464FEA164638
:1018D00046EA0106BCBF46EA0646360C4FF0000356
:1018E0004FF000024FF0000194E72DE9804C9A463A
:1018F000934670B491E8380007C831EA400C48BFFD
:1019000034EA430C03D5FFF7E6FDFFF780FFF0BC98
:10191000BDE8008C2DE9804C9A46934670B491E85E
:10192000380007C810F0804F08BF13F0804F03D174
:1019300000F005F8FFF76BFFF0BCBDE8008C20F06D
:101940007F4780EA030023F07F4C07EB0C03A3F5ED
:101950007C5300F00040A3F1FE0392F0000F00F072
:10196000B38095F0000F00F077802DE901494FEA30
:1019700011404FEA144621EA004800FB06FC24EA25
:10198000064708FB06F607FB08F800FB07F718EB0D
:1019900006484CEB164C4FEA124B18EB07484FEA3F
:1019A00015464CEB174022EA0B4E0BFB06FC25EAD2
:1019B00006470EFB06F607FB0EFE0BFB07F71EEBBA
:1019C000064E4CEB164C4FF000061EEB074E4CEB50
:1019D000174B18EB0B0840F1000018EB0E0B58EBFF
:1019E000000840F100008F1A4FF000013CBFC943CE
:1019F000661B14BFB5EB040C00213CBFC943F61BAA
:101A00004FEA17444EEA8E0E27EA04454FEA1C4778
:101A100004FB07622CEA074C05FB07F70CFB05F6F5
:101A200004FB0CFC16EB074642EB174216EB0C4688
:101A300042EB1C421BEB060658EB0202414146EA10
:101A40009E0601D5BDE80189B619524141EB01015D
:101A5000A3F10103BDE801894FEA14454FEA11479C
:101A600024EA054621EA074C05FB07F406FB07F7C5
:101A70000CFB06F105FB0CFC11EB074144EB174492
:101A80004FEA124711EB0C4144EB1C4422EA074C8D
:101A900005FB07F206FB07F70CFB06F605FB0CFC43
:101AA00016EB074642EB174216EB0C4642EB1C4581
:101AB0006A1854F1000148BF7047B619524141EB12
:101AC0000101A3F10103704795F0000F37D04FEAF1
:101AD00011424FEA144721EA024624EA074C02FB6E
:101AE00007F106FB07F70CFB06F402FB0CFC14EBFA
:101AF000074441EB17414FEA154714EB0C4441EB07
:101B00001C4125EA074C02FB07F506FB07F70CFB17
:101B100006F602FB0CFC16EB074645EB174516EBE9
:101B20000C4645EB1C42121951F1000148BF7047A9
:101B3000B619524141EB0101A3F1010370474FEA8D
:101B400014454FEA114724EA054621EA074C05FBF4
:101B500007F106FB07F70CFB06F24FF0000605FB4A
:101B60000CFC12EB074241EB174112EB0C4251EB1C
:101B70001C4148BF7047921841EB0101A3F10103DA
:101B8000704700F00F01000900EB800001EB4000FE
:101B9000C0B27047FEE770470A21B0FBF1F201FBCB
:101BA0001202B0FBF1F042EA0010C0B27047000030
:101BB00070B5044600F004F90546601C02D00448E4
:101BC0000078044400F0FCF8401BA042FAD370BD3A
:101BD000100000202DE9F84FDFF8B8910024A9F19A
:101BE000040B23460F2709F1040AABF1040EC9E0E8
:101BF0000125A5402A40AA427DD1674ED1F804C0F4
:101C0000ACEB0608B44532D014DCBCF1030F3AD07B
:101C100009DCBCF1000F2AD0BCF1010F1CD0BCF1D3
:101C2000020F31D11DE0BCF1110F17D0BCF1120F22
:101C30002AD119E0B8F5881F19D006DCB8F5803F25
:101C400015D0B8F5801F1FD111E0B8F5001F0ED0D8
:101C5000B8F5041F18D10AE0CB6815E0CB681B1D4E
:101C600012E0CB6808330FE0CB680C330CE08B68D4
:101C70002BB1012B4FF0080303D0456104E004238E
:101C800002E0056100E00023FF2A01D8064601E0DA
:101C900000F104064FEA840501D9A5F12005D6F824
:101CA000008007FA05FC28EA0C0803FA05F548EA63
:101CB0000508C6F800804D68ED0062D5374DAE6965
:101CC00046F00106AE61AD6924F0030605F001059A
:101CD0000095334D06EB050CDCF80850A607360FCF
:101CE00007FA06F825EA0805DFF8B880404503D171
:101CF0004FF0000817E044E0DFF8AC80404502D127
:101D00004FF001080FE0DFF8A480404502D14FF00A
:101D1000020808E0DFF89880404502D14FF0030840
:101D200001E04FF0040808FA06F848EA0508CCF884
:101D300008804D68D9F80060ED024D4601D5164384
:101D400000E096432E604D68DAF80060AD0255461B
:101D500001D5164300E096432E604D68DBF8006025
:101D6000AD035D4601D5164300E096432E604D68F5
:101D7000DEF80060ED03754601D5164300E096439A
:101D80002E60641C0D682A46E5407FF431AFBDE843
:101D9000F88F0000080401400000111000100240FC
:101DA0000000014000080140000C0140001001400B
:101DB000001401408068084000D0012070470000F6
:101DC00001488068704700001000002070B50400D2
:101DD00025D094F83D00002520B984F83C502046D9
:101DE00000F076FA242084F83D002068016821F094
:101DF000010101602068016841F400410160206830
:101E0000016821F40041016000F0B0FB4D4A6168B7
:101E1000914201D84C4900E04C49884201D201204E
:101E200070BD4B492368B0FBF1F15E6826F03F06B8
:101E30000E435E606368934206D94FF4967359432C
:101E40004FF47A73B1FBF3F12368491C1E6A26F044
:101E50003F06314319626168914210D84900401E23
:101E6000B0FBF1F2521CC2F30B02042A01D204208F
:101E700022E0B0FBF1F0401CC0F30B001CE0A268B4
:101E8000F2B301EBC10303EB0116431EB3FBF6F300
:101E90005B1C43F480431B0549D092B301EBC102A4
:101EA00002EB0111401EB0FBF1F0401CC0F30B002F
:101EB00040F4804040F400402168CA694CF6FF734A
:101EC0009A431043C861D4E90710014320680268AF
:101ED00022F0C00211430160D4E9030101432068EC
:101EE000826848F2FF339A4311438160D4E90501C7
:101EF00008432168CA6822F0FF021043C86001E06D
:101F00000EE016E02068016841F0010101602564DF
:101F1000202084F83D00256384F83E50002070BDE9
:101F200001EB4106431EB3FBF6F35B1CB3E7012054
:101F3000C2E701EB4101401EB0FBF1F0401CC0F3D1
:101F40000B00B7E7A086010080841E0000093D0059
:101F500040420F002DE9F84F0025DDF82890984603
:101F600017468A4604460095FFF72AFF064694F86E
:101F70003D0020287AD11923012286492046009667
:101F800000F0D6FD0028F5D194F83C0001286DD072
:101F9000012084F83C0020680168C90703D101686A
:101FA00041F0010101602068016821F400610160D5
:101FB000222084F83D00102084F83E0025646762EA
:101FC000A4F82A80608D20857348E06233464A4633
:101FD0005146204600F0BCFC00287CD1208DDFF863
:101FE000BC81202768B1012814D00228206801682C
:101FF0001ED041F4806101602068416980690090D1
:10200000BBE02068416981690091016841F4007179
:102010000160B2E02068016821F48061016072B65D
:102020002068416981690091016841F400710AE00A
:1020300041F40061016072B62068416981690091D4
:10204000016821F48061016062B696E0032865D8DA
:1020500001280CD002284B464FF000024146204692
:1020600000960BD000F064FDA8BB0CE090E0324677
:102070004946204600F002FE68BB71E000F058FDC2
:1020800048BB72B633E02068016821F480610160CA
:1020900072B620680069616A0870606A401C6062FC
:1020A000208D401E2085608D401E60853C4846F294
:1020B000A8110068B0FBF1F0C0EBC00000EB80009D
:1020C0000090401E009007D020684069C043400740
:1020D0000DD50098F5E727E044F8305F6773A573E6
:1020E000206940F02000206162B625731CE0206862
:1020F000016841F40071016020680069616A08703C
:10210000606A401C6062218D491E2185618D491ED7
:10211000618562B621680969017025E03246494649
:10212000204600F0ABFD10B10120BDE8F88F20681B
:102130000069616A0870606A401C6062208D401E00
:1021400081B22185608D401E608520684269D2433E
:10215000520712D4032903D1016821F48061016080
:1021600020680069616A0870606A401C6062208DA6
:10217000401E2085608D401E6085208D00287FF4E4
:1021800065AF84F83D7084F83E5084F83C50CCE74D
:102190000220CAE7020010000000FFFF0400010057
:1021A0001C0000202DE9F84F1F4690468A46044641
:1021B000DDF82890FFF704FE054694F83D0020283E
:1021C0007FD11923012240492046009500F0B0FC40
:1021D000002876D194F83C00012872D0012084F8C0
:1021E0003C0020680168C90703D1016841F0010182
:1021F00001602068016821F400610160212084F8F9
:102200003D00102084F83E0000262664C4F8248097
:102210006785608D20852D48E0622B464A465146F1
:10222000204600F00BFC90B920684169806900905D
:1022300036E02A464946204600F058FD50B1206C51
:10224000042804D12068016841F400710160012074
:10225000BDE8F88F606A216800780861606A401CF8
:102260006062618D491E6185218D491E89B221857B
:1022700022685369DB435B070BD451B100781061CE
:10228000606A401C6062608D401E6085208D401E2B
:1022900020852A464946204600F01EFC0028CED163
:1022A000208D0028C5D154F83D0B016841F4007120
:1022B0000160202004F81E09E67766770020C7E752
:1022C000FFE70220C4E70000020010000000FFFF4B
:1022D00010B586B000210091019102910391006830
:1022E0000F4988421AD10F4CA06940F00800A06144
:1022F000A069694600F008000490C02000901220F8
:102300000190032003900848FFF764FCE06940F463
:102310000010E061E06900F40010049006B010BD08
:102320000054004000100240000C01400248816847
:10233000027811448160704710000020074810B5F2
:10234000016841F010010160032000F067F80F20E0
:1023500000F006F800F024F8002010BD0020024034
:1023600070B50D4D04464FF47A712878B1FBF0F04A
:102370000A490968B1FBF0F000F0BEFA48B9102C28
:1023800007D200222146501E00F028F800206C6081
:1023900070BD012070BD0000100000201C00002056
:1023A0000C4808B5816941F001018161816901F042
:1023B00001010091C16941F08051C161C06900F023
:1023C000805000900448416821F0E06141F00071C4
:1023D000416008BD0010024000000140F0B40E4B07
:1023E0001B680C46C3F30223C3F10705042D00D973
:1023F0000425191D072901D2002300E0DB1E012658
:1024000006FA05F1491E214099409E40761E16406D
:102410003143F0BC00F098BD0CED00E0064900F03F
:10242000070208684FF6FF03184040EA0220034AFB
:1024300010430860704700000CED00E00000FA0552
:102440002DE9F0470F46050061D0434E306800F09B
:102450000700B84209D2306820F0070038433060E6
:10246000306800F00700B84251D128683B4C810722
:1024700012D5400703D5606840F4E06060602878BA
:10248000000703D5606840F4605060606068A96828
:1024900020F0F000084360602878C00728D0686802
:1024A000012810D02168022810D0890700292EDACF
:1024B000616821F0030101436160FFF781FC804600
:1024C00041F288390DE021688903EFE78901EDE7E2
:1024D000FFF776FCA0EB0801494502D90320BDE8CF
:1024E000F0876068696800F00C00B0EB810FEFD1F5
:1024F000306800F00700B8420BD9306820F00700C0
:1025000038433060306800F00700B84201D0012045
:10251000E5E72878400705D56068E96820F4E060C1
:10252000084360602878000706D56068296920F4B0
:10253000605040EAC100606000F028F86168084A15
:10254000C1F30311515CC8400649086006480068A1
:10255000FFF706FF0020C2E7002002400010024003
:10256000323700081C0000201400002004480549F0
:1025700000684968044AC1F30221515CC8407047B1
:102580001C00002000100240423700080E4A51682B
:102590000E4801F00C03042B11D0082B0FD10C486E
:1025A000C1F38343C903C05C0AD55168084AC1F32B
:1025B0004041921E515C054A5043B0FBF1F0704718
:1025C00004494843704700000010024000127A009E
:1025D0002237000800093D002DE9F84F040070D0B3
:1025E0002078C04DC00749D06868C0F38100012839
:1025F00007D06868C0F38100022809D16868C00369
:1026000006D52868800339D560680028E7D035E012
:102610006068B0F5803F0BD010B1B0F5A02F11D09D
:10262000286820F480302860286820F4802002E0A8
:10263000286840F480302860606890B1FFF7C0FBE4
:1026400006460AE0286840F480202860F0E700BFD2
:10265000FFF7B6FB801B642873D828688003F7D582
:102660000CE0FFF7ADFB064605E000BFFFF7A8FB57
:10267000801B6428F0D828688003F7D420789A4E0D
:1026800080074FF001094FF0000839D5686810F055
:102690000C0F07D06868C0F38100022809D1686870
:1026A000C00306D42868800714D52069012808D102
:1026B00010E02069B0B1C6F80090FFF781FB074633
:1026C00005E00AE1FFF77CFBC01B0228C4D828689C
:1026D0008007F7D52868616920F0F80040EAC1005A
:1026E00028600DE0C6F80080FFF76AFB074604E0AB
:1026F000FFF766FBC01B022823D828688007F7D4A1
:10270000207800072CD57948A169D9B1C0F800908C
:10271000FFF756FB074604E0FFF752FBC01B0228F9
:102720000FD8686A8007F7D571484FF4FA510068EE
:10273000B0FBF1F0009000BF0098411E0091FAD26A
:102740000EE080E0C0F80080FFF73AFB074604E0A7
:10275000FFF736FBC01B022875D8686A8007F7D4DC
:102760002078400760D5E8690027C00008D4E869F0
:1027700040F08050E861E869012700F08050009047
:102780005C480168C90513D40168834641F480712F
:102790000160FFF715FB824606E000BFFFF710FB64
:1027A000A0EB0A0064284ED8DBF80000C005F5D580
:1027B000E06801280AD008B1052813D0286A20F063
:1027C00001002862286A20F0040002E0286A40F034
:1027D00001002862E06841F2883B98B1FFF7F0FA07
:1027E00082460BE0286A40F004002862EEE700BF52
:1027F000FFF7E6FAA0EB0A0159455AD8286A800784
:10280000F6D50CE0FFF7DCFA824605E0FFF7D8FAD0
:10281000A0EB0A0159454CD8286A8007F6D41FB1AD
:10282000E86920F08050E861E06988B36968C1F325
:102830008101022944D00228C6F8608004D0FFF745
:10284000BFFA044638E034E0FFF7BAFA074604E07E
:10285000FFF7B6FAC01B02282BD828688001F7D4EE
:10286000206AB0F5803F05D16868A16820F4003087
:1028700008436860D4E908010843696821F47411C9
:1028800008436860C6F86090FFF79AFA044606E0CD
:1028900025E000BFFFF794FA001B022809D828683A
:1028A0008001F7D51BE000BFFFF78AFA001B022862
:1028B00002D90320BDE8F88F28688001F4D40EE027
:1028C0000128F7D06868226A00F48031914204D16F
:1028D000616A00F47010884201D00120EAE700200C
:1028E000E8E700000010024000004242800442423B
:1028F0001C0000200070004010B5401EB0F1807F29
:1029000001D3012010BD4FF0E02460610F2160175A
:1029100000F01AFB0020A06107202061002010BDFC
:10292000FEE701684A69D24352050FD46FF4806212
:102930004A61002140F8301F2022427381730269EE
:1029400042F00402026101730120704700207047C9
:102950002DE9F84F0446C06A1E4693460D4621688D
:102960000A6842F480620A60082807D0012805D06E
:1029700010F5803F02D0206B112804D12068016837
:1029800041F4807101604FF001195B460022494615
:102990002046009600F0CCF84FF4007840B1206853
:1029A0000068C00501D5C4F840800320BDE8F88F59
:1029B0002069DFF884A0B0F5804F0FD00620216891
:1029C00000EAD51747F0F000086133465A460AF18D
:1029D0000601204600F0F4F858BB03E0E8B240F0EE
:1029E00001001CE02168E8B2086133465A465146AE
:1029F000204600F0E5F8E0B920684169816900915E
:102A0000016841F4807101605B460022494620461E
:102A1000009600F08DF80028C1D147F0F100216840
:102A2000086133465A465146204600F0C9F800284E
:102A3000BCD00120BAE7000002000100F8B504464E
:102A4000C06A1E460D461746082807D0012805D043
:102A500010F5803F02D0206B122804D12068016855
:102A600041F480710160134600224FF001112046AD
:102A7000009600F05DF840B120680068C00502D5FE
:102A80004FF4007020640320F8BD2069B0F5804F3A
:102A90000ED00620216800EAD51040F0F000086151
:102AA00033463A460B49204600F08AF878B902E0EE
:102AB00005F0FE0000E0E8B22168086105493346F0
:102AC0003A46891F204600F07BF80028DCD0012020
:102AD000F8BD00000800010070B516460D4604461A
:102AE0001EE02046FFF71DFF08B1012070BD681CE5
:102AF00016D0FFF765F9801BA84200D885B9206879
:102B00004069C04340070BD5002044F8300F202116
:102B10006173A073216941F0200121612073E4E712
:102B200020684069C0434007DBD4002070BD00002E
:102B30002DE9F047984617460D460446C1F307466F
:102B4000DDF820902AE000BFB8F1FF3F26D0FFF764
:102B500037F9A0EB0901414502D8B8F1000F1DD1AA
:102B60002068012E16D0806925EA00000004000CC0
:102B700012D00020B84211D1002044F8300F20219B
:102B80006173A073216941F020012161207301204C
:102B9000BDE8F0874069E7E70120EBE72068012EF8
:102BA0000AD0806925EA00000004000C06D000204D
:102BB000B842C9D00020EBE74069F3E70120F7E70E
:102BC0002DE9F047984616460D4604464FF0000999
:102BD0004FF0200AC1F3074723E020684069C04353
:102BE000400515D42068016841F400710160216836
:102BF0006FF480604861C4F8309084F83DA084F898
:102C00003E90216C41F00401216484F83C9021E065
:102C1000701C06D0FFF7D4F8A0EB0800B04203D830
:102C200016B1012F1FD021E02068012F15D0806937
:102C300025EA00000004000C18D000BF44F8309FC3
:102C400084F80DA084F80E90216941F020012161E3
:102C500084F80C900120BDE8F087406925EA000067
:102C60000004000CEAD12068406901E02068806916
:102C700025EA00000004000CAFD1ECE72DE9F0419B
:102C8000002590460E460446202728E04069C043B0
:102C9000C0060CD454F8301B6FF01000486144F8A3
:102CA00010596777A577206A2062257714E0FFF72F
:102CB00087F8A0EB0800B04200D886B920684069C8
:102CC000C04340060BD544F8305F6773A573206995
:102CD00040F02000206125730120BDE8F0812068CC
:102CE0004169C9434906D1D40020F6E770B51646BC
:102CF0000D4604461EE02046FFF713FE08B10120F2
:102D000070BD681C16D0FFF75BF8801BA84200D886
:102D100085B920684069C04300060BD5002044F8FF
:102D2000300F20216173A073216941F020012161DE
:102D30002073E4E720684069C0430006DBD400202C
:102D400070BD00000D484078082815D2DFE800F07B
:102D50000406080A0C0E101200F014BC00F088BB28
:102D600000F0FEBA00F0B8BA00F072BA00F03CBB56
:102D700000F0C2BB00F08AB97047000000000020DC
:102D800000B585B00020019003901148816941F0A1
:102D900020018161816901F020010491816941F084
:102DA00004018161816901F004010491816941F0AC
:102DB000080181618069694600F0080004900720DD
:102DC0000090012002900348FEF704FF05B000BD0B
:102DD0000010024000080140FEE7FEE77047016076
:102DE00070477FB50546002064260C468DF80C0020
:102DF0000096012303AAD0212868FFF7D3F9009693
:102E0000072301AAD0212868FFF7A4F89DF8040041
:102E1000FEF7B7FE20709DF80500FEF7B2FE607069
:102E20009DF80600FEF7ADFEA0709DF80700FEF7C6
:102E3000A8FEE0709DF80800FEF7A3FE20719DF843
:102E40000900FEF79EFE60719DF80A00FEF799FEEC
:102E5000A0717FBD3EB5044600208DF804000B46EE
:102E60000878FEF799FE8DF805005878FEF794FE75
:102E70008DF806009878FEF78FFE8DF80700D87859
:102E8000FEF78AFE8DF808001879FEF785FE8DF8AA
:102E900009005879FEF780FE8DF80A009879FEF750
:102EA0007BFE8DF80B0064200090082301AAD0213E
:102EB0002068FFF777F93EBD7047FFF737BA30B5A6
:102EC0008FB028216846FDF706FA14210AA8FDF7FD
:102ED00002FA01210804CDE9001000240294022521
:102EE0000491CDE907504FF4E01009906846FFF7D0
:102EF00073FB08B172B6FEE70F20CDE90A054FF467
:102F00008060CDE90C4002210AA80E94FFF798FAE0
:102F1000002801D072B6FEE70FB030BD7047FEE763
:102F2000490050EAC12018BF04204A0D18BF40F0E4
:102F3000010040F2FF72B2EB515F08BF40F00200A7
:102F4000012808BF052070470907090E002804DB87
:102F500000F1E02080F80014704700F00F0000F14D
:102F6000E02080F8141D704730380A2801D2012073
:102F700070470020704770470349884202D10349D7
:102F800000204870704700008C00002000000020E6
:102F900010B5164C022201231549A04219D14878D8
:102FA000082806D2DFE800F00406080A0C0E10120A
:102FB0004B7010BD4A7010BD032008E0042006E0ED
:102FC000052004E0062002E0072000E00020487011
:102FD00010BD064C1834A04201D10B7010BD034B3C
:102FE00030339842FAD10A7010BD00008C000020E6
:102FF00000000020704770B50446818A0069FEF722
:10300000D9FEA1780126814204D0A070E670FEF7B7
:10301000D7FE6060E078002540B1FEF7D1FE616820
:10302000401A0F2802D3A0782070E57020786178CC
:10303000884210D0F8B1FEF7C3FEA168401AB0F57F
:103040007A7F02D82046FFF796FF2046FFF7D2FF8F
:10305000257320786070207B00280BD0FEF7B0FE2F
:10306000A168401A40F6B831884203D32046FFF7E2
:1030700083FF257370BD26732046FFF789FFFEF797
:103080009FFEA060E5E701618282704710B50E499E
:103090000E48FFF7DFFE0D48002211460C3800F005
:1030A000BFF80A480AA10C3800F059F80748002276
:1030B00001210C3800F0B4F80448BDE8104009A123
:1030C0000C3800F04CB80000080000208000002000
:1030D0002E2E2E2E2E5550444154452E2E2E2E2E61
:1030E000000000005550444154455F53554345533B
:1030F0005346554C0000000010B504464160500096
:103100002070207A332140F004002072204600F025
:1031100043F83221204600F03FF80520FEF748FD35
:103120000121204600F038F80520FEF741FD0C2172
:10313000204600F031F80520FEF73AFD0221204636
:1031400000F02AF80520FEF733FD8021204600F02C
:1031500023F8204600F074F80820607210BD0FB408
:1031600070B586B005460CAA68460B99FDF782F843
:1031700000246E4605E0315D284600F02DF8641C01
:10318000E4B26846FDF788F8A04201D9102CF2D3CA
:1031900006B070BC5DF814FB1CB501F0F002437A78
:1031A00042F004041C438DF8044013438DF80530AD
:1031B0000901427A41F004031A438DF80620427A4D
:1031C00004230A438DF807206421009101784068A8
:1031D00001AAFEF7E7FF1CBD1CB501F0F002437A1F
:1031E00042F005041C4342F001028DF804401343F1
:1031F0008DF805300901427A41F005031A438DF834
:103200000620427A41F001010A438DF8072064212B
:10321000009101784068042301AAFEF7C3FF1CBD9A
:1032200008B506A31B6800931DF801101144C9B22C
:1032300041F08001FFF7B0FF08BD000000401454CA
:10324000017A21F00101017241F00801FFF7A4BFEA
:1032500010B51649002201F108040B782079012BE2
:1032600002D0022B06D00AE01F2801D0401C04E047
:10327000012002E0012817D0401E20710A700022B0
:1032800011460B48FFF7CCFF0AA10948FFF767FF7B
:10329000002201210648FFF7C3FF2279BDE8104054
:1032A00008A10348FFF75BBF1F20E6E700000020EE
:1032B000740000205F434150204E484154204E4747
:1032C00041595F00202020444154453A20253032A6
:1032D000642020200000000010B5164A002102F1F1
:1032E00008041378A078012B02D0022B1BD005E034
:1032F000172801D0401C18E0A1701170002211465F
:103300000D48FFF78DFF0DA10B48FFF728FF0022A6
:1033100001210948FFF784FFA278BDE810400BA106
:103320000548FFF71CBF10B1401EA070E5E717204D
:10333000FBE7000000000020740000205F434150C4
:10334000204E4841542047494F5F20002020202034
:1033500047494F3A202530326420202000000000E9
:1033600010B5164A002102F1080413786078012B89
:1033700002D0022B1BD005E03B2801D0401C18E0F6
:1033800061701170002211460D48FFF749FF0DA131
:103390000B48FFF7E4FE002201210948FFF740FF38
:1033A0006278BDE810400BA10548FFF7D8BE10B108
:1033B000401E6070E5E73B20FBE7000000000020B6
:1033C000740000205F434150204E48415420504833
:1033D00055545F00202020504855543A2025303263
:1033E000642020200000000010B51649002201F1E1
:1033F00008040B786079012B02D0022B06D00AE07A
:103400000C2801D0401C04E0012002E0012817D064
:10341000401E60710A70002211460B48FFF700FF42
:103420000AA10948FFF79BFE002201210648FFF789
:10343000F7FE6279BDE8104008A10348FFF78FBE90
:103440000C20E6E7000000207400002043415020DB
:103450004E484154205448414E47200020205448B3
:10346000414E473A202530326420202000000000E1
:1034700010B5164A002102F1080413782078012BB8
:1034800002D0022B1BD005E03B2801D0401C18E0E5
:1034900021701170002211460D48FFF7C1FE0DA1E9
:1034A0000B48FFF75CFE002201210948FFF7B8FE38
:1034B0002278BDE810400BA10548FFF750BE10B1BF
:1034C000401E2070E5E73B20FBE7000000000020E5
:1034D000740000205F434150204E4841542047492A
:1034E00041595F00202020474941593A2025303278
:1034F000642020200000000010B5164A002102F1CF
:1035000008041378A079012B02D0022B1BD005E010
:10351000632801D0401C18E0A171117000221146EF
:103520000D48FFF77DFE0DA10B48FFF718FE0022A6
:1035300001210948FFF774FEA279BDE810400CA1F3
:103540000548FFF70CBE10B1401EA071E5E76320EF
:10355000FBE7000000000020740000205F434150A2
:10356000204E484154204E414D5F20200000000075
:103570002020204E414D3A2025303264202020204A
:103580000000000038B5002211460D48FFF748FE44
:103590000B4C0CA10C34A07A0090637A227A084874
:1035A000FFF7DDFD002201210548FFF739FE2079F4
:1035B00000906379A27909A10148FFF7D0FD38BDD9
:1035C00074000020444154453A20253032642F25B0
:1035D0003032642F253032642020000054494D459C
:1035E0003A20253032643A253032643A253032644C
:1035F00020200000FEF7A2FEFFF761FCFFF7C0FBF2
:103600002B482A49002401602A49C0E901144FF4DB
:103610008041C0E9034144618461C4610462FEF7F2
:10362000D5FB08B172B6FEE72149272201F154000B
:10363000FFF762FD1E4901F16000FFF7D0FB1E4D50
:103640001B48012229466C30FFF71DFD1848022255
:1036500029468430FFF717FD1548042229469C307F
:10366000FFF711FD154D124E6C704FF47A746036F1
:10367000FEF7A6FB6968401AA04207D30C48311D2B
:103680006030FFF7AEFBFEF79BFB6860FFF75AFB6D
:1036900007486C30FFF7AFFC05488430FFF7ABFC00
:1036A00003489C30FFF7A7FCE2E70000005400400D
:1036B00020000020A086010000080140000000203A
:1036C00010B500290AD00878002807D005487844AA
:1036D000FDF748FE002801D0002010BD02487844C4
:1036E00010BD00009A0100009201000010B50029F1
:1036F0000AD00878002807D005487844FDF732FE44
:10370000002801D0002010BD0248784410BD000000
:103710008A01000082010000FDF731BAFDF766BBA7
:10372000010202030405060708090A0B0C0D0E0F1F
:103730001010000000000000000001020304060752
:10374000080900000000010203040000000000005E
:1037500000000000303132333435363738394142D9
:1037600043444546403058003031323334353637E3
:10377000383961626364656640307800040000088F
:103780000000000000000002000100001030313293
:103790003334353637383961626364656678700072
:1037A0003031323334353637383941424344454677
:1037B0005850000002400000000000A0000000007F
:1037C00005400000000000C8000000000C400000A0
:1037D0000000409C00000000194000000020BCBE1A
:1037E0000000000034400000BFC91B8E0000000430
:1037F000B5400000504BCFD06607E2CF010000007B
:103800006C4100003E8251AADFEEA73401000000A7
:10381000D9420000DCB5A0E23A301F97FFFFFFFF5E
:10382000B4450000FD25A0C8E9A3C14FFFFFFFFF7D
:10383000FF3F00000000008000000000FF3F00008C
:103840000000008000000000943900080000002003
:103850002000000028010008B439000820000020E2
:1038600018070000440100081C000000430000008D
:10387000F8FFFFFF0C0000000E0000000F0000002A
:103880002E0000001001000043000000F8FFFFFFC1
:103890000040404040404040404041414141414063
:1038A0004040404040404040404040404040404018
:1038B00040050202020202020202020202020202A7
:1038C00002202020202020202020200202020202AC
:1038D0000202909090909090101010101010101004
:1038E0001010101010101010101010100202020210
:1038F0000202888888888888080808080808080854
:10390000080808080808080808080808020202024F
:103910004000000000000000000000000000000067
:103920000000000000000000000000000000000097
:103930000000000000000000000000000000000087
:103940000000000000000000000000000000000077
:103950000000000000000000000000000000000067
:103960000000000000000000000000000000000057
:103970000000000000000000000000000000000047
:103980000000000000000000000000000000000037
:103990000000000000000000000000000000000027
:1039A0000000000001000000100000000000000006
:0439B0000024F400FB
:04000005080000ED02
:00000001FF
